:1051000000900020C1CD020009DC0200FFDB02009C
:1051100005DC020005DC020005DC020005DC020003
:1051200005DC020005DC020005DC02000DDC0200EB
:1051300005DC020005DC0200A15B020095A802006C
:1051400005DC020005DC020005DC020005DC0200D3
:1051500005DC020005DC020005DC020005DC0200C3
:1051600005DC020005DC020005DC020005DC0200B3
:1051700005DC020005DC020005DC020005DC0200A3
:0C51800005DC020005DC020005DC02007A
:10519000F0B591B00991064607462D3704462C34E8
:1051A000011D0123069250040F960A910094039763
:1051B000079309D4088889780904401800210891C8
:1051C0000291109137468BE125F0CAF802902078C1
:1051D0003D4A48215054154613464835207801462B
:1051E000079A11408207D20F51184007C00F0E18BE
:1051F0001C4620341421204628F04EF8267500263F
:105200006675A675E6753148314901603148324905
:105210000860324CA08D2C49C88124F023FCA08664
:1052200010200E9028494871EE701095AE800F98AE
:10523000408824F02BFC0446387822F021F900281D
:1052400001D07D20C443E0B2032830460A9D00D03F
:105250002FE123F029FF1C4D288100276F610F9C4F
:10526000606B103025F0FAF825F026FD6881616B3F
:10527000088B194AD083488B1084888B5084242053
:10528000085C8007C00F10838868032400282CD096
:10529000827B1218D37B0F221A40072A20D8920053
:1052A00001A39A589746C046ED520000F9520000FB
:1052B000E1520000E1520000E1520000E152000022
:1052C0001B530000275300004C6600204014084088
:1052D000D6BE898E005555553C2009400620094010
:1052E000492000210D91295442E041E049200799CD
:1052F000295403240D943BE008462430CA8BE34B29
:105300001A860A8C5A86498C998600780799084033
:10531000988349202954052003E0492007992954FE
:1053200002200D9024E010994F70079DCD70817B75
:105330000918497C890618D0002739460FF09CFCD3
:105340003520F74A105C00280D970CD00F98408844
:10535000032420401146213189780904490D8842EF
:1053600001D04C201554154602E00D978424EC4DD5
:105370004B27E85D00280CD000232A463832AB6367
:10538000EB631372538193810F98406B08300121B6
:1053900005E00F98406B08300221002213460FF001
:1053A0003BF80A9D00280BD00222002110910D9994
:1053B00011400C9208D0012806D18324109E5FE092
:1053C00000268324304674E00B970D9882B2089231
:1053D000D44A10800026CB4F7E810F98426B252542
:1053E000505D03230340FB82505D40080427384092
:1053F000CD4B1885505DC006C00F588500290D970C
:105400000DD00596506825321278D1070DD1C749C5
:1054100053073A40DB1719405200184008E0C148D2
:1054200086810B9F324606460AE0C149491C00228C
:105430000B9FBC4EB18131461E3122F02FFB059AE5
:105440000898C00703D100203082079E17E00F980C
:10545000416B08684B5D990708D4B4490D9D1D4008
:105460005A07D31719406A00184001E0B049491C97
:10547000079D31829E36314622F010FB2E460A9D52
:10548000A748C05D002813D00F98406B083024F067
:10549000AFFF002802D18421A14A51710C990172F9
:1054A0009F4A916B884201D1002090630E9800E0E2
:1054B00010981090E1B22888AA7812048218080285
:1054C0009C4B1A4010432880120CAA700F2903D954
:1054D0000221109A0A431092711E8E4108960F9F66
:1054E000FF210902014003200E900002814264D195
:1054F000012081040491904B059001020846B030D0
:10550000099A024201915DD0104608400C90069E17
:10551000304618400B908948C06A042855D30020B3
:105520000D9023F0DFF880B2471D3C460E9884436F
:105530007B4D6869214620F089F82A460546506966
:10554000854204D008201099014310915561002D27
:105550003DD0B908E8892E18103630461DF0BEF946
:105560006F4A0C9800280F9F17D04B20105C002822
:1055700013D070680F21090401400E980004814285
:105580000BD1304623F014FE654AC00602D5352003
:105590000D9911544D2005991154E8892918D27993
:1055A000CA740019E8810420109901431091786BA6
:1055B000103024F053FF0B9EADE7109DA80700D5D7
:1055C0009DE2A0E2069C264610E0554A05E08520B3
:1055D00050715B48059901600F9F9079002804D0B5
:1055E000B86B5849C96820F023FD069C0498044014
:1055F0007006C50F30460199084003D048494A2239
:10560000059B8B54A40C10990D430999C90712D01E
:10561000049931400FD144490988042923D13948DC
:10562000406D3F498A69801A3863402048710320E1
:1056300000BF00BF31E00998000440D538484079E8
:10564000102803D1384800881FF05CFA27F082FC4C
:10565000384A114008431880080C9870022005430E
:10566000002408942BE0B20512D4421E9041CA1FB8
:10567000534253412A4F4A22BA5C571EBA411A4339
:105680000243012A66D1022003E0C0463C200940C3
:10569000032018F049FC224948712148407927F03D
:1056A00059FC244A114008431880080C98700220C5
:1056B0000543032000BF00BF002408940F9FF003A0
:1056C00005D5786B103024F0C9FE1B4806400898B9
:1056D000002800D1F9E0124A4823D056002810953E
:1056E0000B930D9434D403994D78052D00D90025E2
:1056F00007210840801E05284ED8800002A10858C6
:105700008746C0463C2009404D57000049570000DD
:1057100095570000915700009D570000A5570000C5
:105720004C66002096200940062009400A800000AF
:105730000A80FFFFFF00FF00FFFFFEFFA0110840EF
:1057400030100840E46B0020E80725D026252BE028
:10575000054629E00229ED4F03D13520385C0028A9
:105760009BD1012008904820385C002800D159E2E4
:10577000E74805210160B87900280F9F04D0B86B75
:10578000E449C96820F054FC23F078FC002496E733
:10579000E80701D0272507E0252505E00120054081
:1057A000263501E06D0825352020105C918921F017
:1057B0009FFE0446E8B20C9019F04AFA002813D074
:1057C00007998F030121099105F01CFF22F042FF88
:1057D0003E4216D10398807800283FD0CE4826F06C
:1057E000C9FB07460A9E5DE00A9A27F04FFECB49A7
:1057F00008404121490227F0FFFC109D05430D9C04
:1058000063E00F9802991DF0E7F807460F2822D8A9
:105810004B20BE4A105C00280AD03520105C0028BE
:1058200006D00B9827F0F4FC002801D17D20C74357
:105830000D9C0F98806BB74EF1681EF02DFAB34A9D
:1058400090714A2000211154307F800701D026F04A
:1058500097FF0A9E27E00A9E0D9C27E04B20AB494C
:10586000085C00280A9E1AD03520085C002816D053
:10587000A7081D371E21384620F05AFC781A8000F0
:105880009721C9004018703026F074FB07460B982A
:105890009E4A27F0BDFC002804D18227DCE727F0D0
:1058A00060FB07460D9CF8B210284AD33088B178C7
:1058B000090440183902994A104001433180000C14
:1058C000B0700220109D05430F9F002C00D10FE106
:1058D0008E482126805D3F240440204619F0B8F907
:1058E000002821D00D961095059905F08BFE22F029
:1058F000B1FE786B8068002500281FD006460C9505
:105900000B944C24814D2F5D27F0D8FF0146002FCA
:1059100026D001984118E03109917E48008D24F08D
:10592000B5F8002028551CE00A9A27F0AFFD7B4906
:1059300008404121490227F05FFCD8E00995734BEC
:10594000AFE07749002088836EB20C99402901D2DC
:10595000402028436D4A734F002E2BD405462BE080
:1059600009912B4635460D9EA87B4019C17B0F241B
:105970002140072912D1477C002128460D910FF0C4
:105980007BF9B80902285FD0012870D000280F9F4A
:105990005E4B0B9C7FD149200D9980E00A9A27F03D
:1059A00075FD5E4908404121490226F0E2FF0F9F44
:1059B0000B9C75E07F200540E8B2788610790028BE
:1059C00004D0280658494140584801604920105CDD
:1059D00000280AD024F022F94C488279B88D544925
:1059E000002A06D08031084606E00998C003401C12
:1059F00002E08007800E48400F9F109D27F090F92D
:105A000027F0DEF8022000BF00BF4A4805210160F0
:105A1000002E14D40C982538099981403B4A0B9BE1
:105A2000D05C8843D05403998978002900D14CE791
:105A3000002800D049E700980078D05445E70020BE
:105A4000F6490B9A885440E73520F44B185C00283F
:105A50000F9F00D16AE14920002119540A9A27F0CA
:105A600015FDEB490840B10226F083FFA0E7352081
:105A7000EA4B185C00280F9F0B9C00D18CE1492059
:105A80000D9919540A9A27F001FDE1490840B10225
:105A900026F06FFF04E049200D9919543520195460
:105AA0000C9D786B08301A46383201212B460EF0D7
:105AB000B3FC06462A462B46002E09D0701E4142F2
:105AC00041410D4204D1414241411140012933D1AC
:105AD00010980A9B19889A7812048918CC4A1140A8
:105AE000832212020A431A80090C99700225054389
:105AF000A80708D5B86BD149C96820F099FA23F0F6
:105B0000BDFA26F093FD284611B0F0BD4C6600208A
:105B1000A0110840E46B002088130000FF00FF0084
:105B20009620094006200940D6BE898E40140840C0
:105B30003181000030100840089307920C950B94B7
:105B40009720C50009984019703084081D341E2123
:105B5000204620F0EDFA601A84004D20AF49085C21
:105B6000002815D00D950D464835E87989890691AC
:105B700021F0BEFC09900C20069921F0B9FC0D998A
:105B80006118099A89180C1800206871A34D01E06A
:105B900008340D46204626F0EDF90D903520285C9E
:105BA00000280ED02C4627F089FE4821695C2A4641
:105BB000483212790FF072FB002802D17D20C043D9
:105BC0000D90089898490880924804244481796B84
:105BD00025254A5D0E9B1A408F4BC282485D4008C6
:105BE00020401885485DC006C00F588550208B4A5C
:105BF000105C002802D0588D204358850C9800284E
:105C00000CD0486825310A78D10739D18749530724
:105C10002240DB1719401840520034E0002082492E
:105C2000888138E03520385C002800D135E5212016
:105C3000385C2137797809020818B97809044018C6
:105C40007F490140802900D027E57A48072101607B
:105C500023F014FA4C207149095C0020002900D17E
:105C6000D3E0B9780904490D0F9F7A8804231340C3
:105C70000B4372490B850121C9030D4308901EE5B2
:105C80006B49491C0022684B998119461E3121F04D
:105C900005FF624A604B079800280CD0796B0868B2
:105CA0004A5D91070DD4614914405207D217114043
:105CB0001040620008E000205B490882109D0D9CA6
:105CC0000CE05B49491C0022109D0D9C564B19822B
:105CD00019469E3121F0E2FE504A4F4BE0B21028A7
:105CE00006D30A9A27F0D2FB2102494B184022E63C
:105CF00000244D4884830B9940315986107900283F
:105D000004D0080647494140454801604920105CDD
:105D1000002856D023F082FF404882793E48808D8B
:105D20004849002A51D08031084651E049200121DC
:105D300019542F68002F65D0B87BC019C17B214052
:105D400007290CD1407C3F2809D8A87B2818007C63
:105D50000B30FC21014038460EF08EFF2F4B0F9880
:105D6000406B08301A46383202262C460025314650
:105D70002B460EF051FB33462A460646B87B3818B0
:105D80000F9F007C254948318871A07B2018007C3A
:105D9000C871059D0B9C8FE649200121089119547B
:105DA0002868002800D193E6786B08301A4638320C
:105DB00002210D9D2B460EF02FFB0646059A089BEF
:105DC0007AE60120C003401C02E08007800E4840B4
:105DD00026F0A6FF26F0F4FE174805210160786B37
:105DE000083024F005FB00280C4A01D184215171B0
:105DF00002210172916B884200D19463761EEED12C
:105E0000102074E610980F9F63E6089C089055E4F4
:105E1000FF00FF003C200940062009404C6600209E
:105E200040140840D6BE898E962009400A800000A2
:105E30000A80FFFFA011084030100840E46B0020EA
:105E400080FF1F0031810000F0B597B004464A1C66
:105E50000B7818462D380D2805D81846214627F00E
:105E600023FE17B0F0BD0D910C922320C000201826
:105E70000F90182B129300D925E1DD204000201847
:105E80000E901B2009900301E0180B9063239B00E8
:105E9000E0181190FF2113945724A40013980019BF
:105EA0000A900C460634139800191090139BF03397
:105EB00013988C300890139F8A37139E7736139A65
:105EC0007632139D67351298800002A42058139CE7
:105ED0008746C0460760000075600000A5600000AE
:105EE000AB600000C7600000C7600000CF6000002A
:105EF000D56000002F610000416100008561000055
:105F00009B610000A1610000C7600000C760000045
:105F10000D620000C7600000DB6200000763000044
:105F200015630000395F0000395F00001D63000049
:105F3000C7600000696300002846119E1299142969
:105F40000D4603D14079002800D159E10D994878D8
:105F50008A7812021318C8780A791202141848793C
:105F60008A7912021218C879097A09020918152DBE
:105F700000D01CE20F9199B21B290B4600D8099B57
:105F80002920C0001B29064600D32646FB27FB2BF1
:105F90001D4600D33D4610905F49FB2B0B4600D8B1
:105FA00033469CB2E0082928099E00D32E4610985B
:105FB000844200D804468C423B4600D833460D97B5
:105FC0008C4200D30C4697B21B2F3E4600D8099E48
:105FD0001B2F074600D30F9FFB2E324600D30D9A8E
:105FE000FB2E0E4600D83E46B6B2F008292800D354
:105FF0000992109886420E9F00D806468E4200D81D
:1060000029E2FB2229E2129711960D98811C407813
:10601000089D2870A81C414C022607463246A0471E
:106020000146281D10903246A0470146A81D0E903B
:106030003246A0470146284608300D903246A04718
:1060400001462878002813D02E46109A1288531E35
:106050009BB2082B00D30823834209D33B88934289
:1060600006D8062A04D32E4CA242139C00D28EE3FB
:106070003020C6E00A9F2046623005220C9925F0A8
:1060800093FD0146089D28460C30022225F08CFD28
:10609000A8892189401A80B22249884200D888E123
:1060A0002820AEE00C980078ABE010980078C0078C
:1060B00000D085E11A205873187B0D21012868D182
:1060C000FF222046BEE10F981299417271E2012031
:1060D0009873C6E61C46109A0A9F0E9B0B9D0C985F
:1060E00000780E38082800D9BBE6800001A10858C6
:1060F0008746C0462961000027660000635E0000F5
:10610000635E000035660000635E00003B660000D1
:10611000635E00004566000090420000A9BB0200DB
:10612000810C0000FE7F00000320207599E62046C8
:106130000C9918F04DFF6879002861D0092139E2E7
:1061400020460C9918F044FF109840780007119AE7
:1061500002D4E748D0805080E6484078800600D4DA
:106160007FE690881B280BD110881B2808D1292096
:10617000C000D188814203D15188814200D170E6AC
:10618000142106E00020287068711880012018731F
:106190000B2120461AF0AEFC63E60120D87360E6BE
:1061A000109F387C012815D00D98821C40780F99DB
:1061B00008708D204000201802261146324625F036
:1061C000F3FC0146472080002018324625F0ECFC05
:1061D000012038746879002812D0B87C002800D0DB
:1061E0003FE63D46787C002800D03AE60C21204668
:1061F00005F0B0F8002800D1E2E10120A87430E6F3
:106200003D200F9908720120C8712AE60B9212975F
:10621000119610980078800700D4C7E10D9948784E
:1062200007908E78C8780A79120210180E90487973
:106230008A79120210180C90C8790A7A120215187D
:10624000487A0990887A0690CF7A087B4A7B1202B6
:10625000121814A802808A7BCB7B1B029A184280FA
:106260000A7C4B7C1B029A1882808A7CCB7C1B02A6
:106270009A18C2800A7D4B7D1B029A1802818A7D82
:10628000C97D090289184181052027F0B1F800284D
:10629000059500D183E13002079946183802069926
:1062A0004218208914A9079292B2ADB200950190CC
:1062B0000998029003920491B1B20E9882B20C98A0
:1062C00087B220460D923B4615F0D3FC002800D142
:1062D000EEE10C9F0E9E1E2564E1863160180D9C38
:1062E000617828230A9FF954A17801701078012859
:1062F00000D0AAE0307801460F39022900D33FE1EF
:1063000001207873ADE510980078C00600D5A0E0B4
:1063100012204CE100200A990872A2E50E9F119EFE
:106320000B9D109840780922104200D124E10D996C
:1063300048788A780240072010404870F978014078
:10634000797000D127E1481E084200D125E10329D8
:1063500000D98BE10220020600D11EE1084200D0E4
:1063600085E1C0B24008F6E735460E9F0B9E0D99B9
:106370004B788878834209D1072018400C9A107016
:1063800000D133E15A1E024200D1C1E118211E257D
:1063900020462A4620F032FCA179002228461346E6
:1063A00018F076FBB87840210143B97059E50E9F8B
:1063B00054E029460120A8720021E183387050E59D
:1063C00000202870687120469C30129001200793AD
:1063D00018742046B430694F264608240C9922468A
:1063E000B84701463046BC300222B8470146304625
:1063F000A43011903546AC3528462246B847109057
:106400002846214624F038FC3546A0350424284689
:1064100010992246B8472846214624F02DFC1198B1
:1064200025F030FD129825F007F9F3480188802205
:106430000A4302800798007B0421012800D0A8E0CD
:10644000FF22304616F06AFF0BE5002025F022FA05
:1064500007E51321AEE0099A3146119E7381F4815C
:106460003281B18188B27188814200D30146387887
:10647000A922120191420F4600D81746042800D0E5
:106480000F46F58AF78204280DD113981CF0F4FB0F
:106490000246B08A111A481E81410F91B282738957
:1064A0000E9800780BE0F288A1B28A4200D30A4627
:1064B000119EB18A541A611E8C410F94B2827F1BC7
:1064C000791E8F41B48899B28C4200D30C46318A30
:1064D000631A591E8B41109334820E9D2979012332
:1064E0000D931BF0F5FE844206D2308A08E0C046C8
:1064F00048080000AA6E00202878297927F03FFA82
:10650000139C129D0F990F430B9948803388308953
:10651000834200D3034610980743119E718A581A8C
:10652000421E904173828B420B9E03D931788022A8
:106530000A4332700743142D15D1002F08D0A079DB
:10654000119C218AA28AE48A0094139C1EF02AF9E5
:106550001521204604F0FEFE002800D081E4A44866
:1065600000780D992FE03078002F01D008210843E2
:1065700020210143317074E4162018E0A9BB020009
:10658000162800D06DE40E9DA87801210143A97062
:1065900067E4304688E0387869E0084668E00C9F98
:1065A0000E9E1A2510980078400710D40F200F99DE
:1065B00048720721204604F0CDFE002800D050E4A8
:1065C0008B4800780121890312F094F849E40F21E7
:1065D00020462A4620F012FBA179059880B200904F
:1065E000B2B2BBB228461EF0B9F83AE428781628B1
:1065F00005D1A1793A780020134618F049FA022013
:10660000B07101203D4678713878119930710F468C
:106610000C8A2979BA8A012313931BF059FE84420C
:1066200015D2388A18E0012038731078FD21014016
:10663000117016E40020387213E428781221014307
:1066400029700EE4987812210143997009E4307999
:106650002979BA8A27F092FA0A9A7080A87840219C
:106660000143A97013981070FFF7FBFB04207870AA
:10667000C1B2042904D120461CF0FEFAB082787819
:10668000C0B224F01EFE2871348A397927F077F9D8
:10669000844201D2308A03E02879397927F06FF9F2
:1066A000139A68801721104615F0ECF8FFF7D9FB14
:1066B00010970F950A9B1E820E9E5E820C98988200
:1066C000059DDD820999197607995983149F1599BB
:1066D000169ADF6119625A6208998E80C8800D810E
:1066E0000220087000204880A08EC11D129A1180DF
:1066F000618E49080D9A8A4226D11099814223D190
:10670000E08E00090F9981421ED110212046CBE76F
:106710007870CA7809790902891831812289891A21
:1067200089B2344A914200D9BAE40121B1710428F6
:1067300011993D4600D069E720460C461CF09CFAB2
:106740002146A082687861E70B98007801281199AA
:1067500008D108780F2805D1FC2120461D461AF0E3
:10676000C9F90AE0887A002802D008781A2839D1B5
:10677000FC2120461D4615F085F8A079298A6A8AF1
:10678000AB8AEC8A009419F04FFBFFF76AFB4000DC
:1067900035463070580070805000B080308900015C
:1067A00030810222129D284625F0FEF92888218991
:1067B000401A80B20F49884200D971E40D980088D0
:1067C0000E990988491C109A12884A435100884240
:1067D0000CD90120119948740021E1830A990870AD
:1067E000FFF73FFB0F20C873FE21D2E43B2008E5F2
:1067F000FB700020FE7F0000EE700020F0B591B02D
:10680000044680780025102800D9B6E3800001A155
:1068100008588746596800007B6F00007B6F0000B6
:106820007B6F00007B6F0000AD680000C76900004F
:106830007B6F00007B6F0000F3690000216A00009D
:106840002D6A00005B6A00007B6F0000A36A0000F5
:10685000F76A0000236F00006078002800D08CE306
:1068600026F034FC079026F029FD089023F04AF921
:106870000BAC20700226102730463946079A974BFA
:10688000984703203946089A944FB84704200121BD
:106890002246B84720783043032800D06DE301201A
:1068A00018F04EF8024606200146B6E0607800284F
:1068B00000D062E30126E178201D62890892277BDF
:1068C00000250095314009AA2B4611F0D5FA002881
:1068D0006DD109A8007824F045F804463E46083EEC
:1068E000701E86417E48807D800027F02BF807903F
:1068F000002800D1DDE109A8069001787848807869
:10690000801E4242424100920898059422463B462E
:106910001AF0B8F90BAC002714222046394626F0AD
:1069200082F8069800780621069148432430102109
:10693000224625F057F8002818D10BA8FF21102275
:1069400024F0CEFC002811D109A80178069848430C
:1069500025300BAC22461032042125F043F80121EA
:1069600005980140089822461CF042FC09A80078CE
:106970005321890040185A49897D8900079A25F0DA
:1069800031F8002800D198E15548C07D002807D192
:106990000598800704D553480178089822F04AFFEB
:1069A00009A800781AF0E0FB079826F0FFFB002EFC
:1069B00000D1E2E24A488078022800D0DDE208985F
:1069C0001AF052FAD9E2A0881FF0F2FB26F01AFE64
:1069D000002800D0D1E2424C607B012800D0D6E0F4
:1069E00023F0A8FD00216173606A227D26F01BF868
:1069F000D4E0201DE17800230093012529400BAA53
:106A000011F03AFA002800D0B7E20BA8017806206E
:106A1000484325300C340421224625F09BFBACE290
:106A20006078002800D1A0E000255EE2012526F074
:106A300097F8002800D1A0E22948C06A002800D1B8
:106A400090E00668002E00D18CE0E01C6189227B7A
:106A5000637B24690094B0478FE2A588277B284692
:106A60001EF0C0FE002800D186E2044626F078F829
:106A7000002800D080E2A01D617900230093012648
:106A800031400BAA11F0F8F9002800D1CEE01448EB
:106A90008078002800D05FE20521284624F07BFBA7
:106AA0006AE26078062800D0F4E0A0881EF09AFE22
:106AB000002800D1EEE00A49497C491E032900D98B
:106AC000E8E0890001A251588F46C046E96A0000FB
:106AD000856C00007B6C00008F6C000055C10200CB
:106AE00068750020BB6E0020A388417900221846FB
:106AF00013F096FACEE0F74FF86A002806D0436804
:106B0000002B03D0A08800210A469847B978A088B6
:106B100000292FD01EF066FE002800D12DE2064687
:106B2000A07AC00715D0B01D72790023009301210F
:106B300011401A46089311F09FF9002809D0707986
:106B4000022806D3A08953218900B431084200D11C
:106B5000C9E0B87B022812D1A07A00070FD4A08820
:106B6000032109E06089012106E0A079C0071BD15B
:106B70000025BFE10125052124F00DFBFDE10125E4
:106B8000A08808347179224613F04AFAF5E1A07C16
:106B9000002839D012F00EFC0020A074502023F001
:106BA0008DF81CF065FCE8E109A8002508262946B7
:106BB000324625F038FFA0881EF014FE002851D080
:106BC00007466069002815D006970790113000210C
:106BD0000622089024F084FB002800D1A1E00027C1
:106BE00006220798394624F07BFB002800D180E07C
:106BF0006761069F78790121014009A88171B91D5B
:106C0000062225F077FAB1E0207D0026C1B28E423F
:106C1000C4D2616A895D012906D1F0B20CF0C8FCCA
:106C2000606A00218155207D761CEFE70BA8007873
:106C300023F098FEFF2800D18EE10246780702D4A7
:106C4000002A00D191E10C2007400C2F00D17FE1F8
:106C5000082F00D186E1042F00D086E1D00700D1B3
:106C60007AE182E124F0C8F8002800D18FE0CF4813
:106C70000078042111F03EFD89E0CE4800210A464B
:106C800002F010FFA08805211CF018FE02E0A08889
:106C90001FF0C4FE0125C648C06A002800D16CE17F
:106CA0004368002B00D168E1A088627802219847F0
:106CB00063E1042024F0EEFD5FE1079C204624F010
:106CC000ABF8BB48807DC1B28F4200D35CE621881F
:106CD000002905D0A278089824F06CFAB448807D89
:106CE0007F1C241DEFE7A088032124F054FA089D9F
:106CF00043E105960798007C0121014007913E463B
:106D0000761C08980670009707993A463B4611F0A2
:106D1000B3F8002801D13006F2D13006059E00D12B
:106D200066E76269002A069F20D00596107C012143
:106D3000014009A881710892164611360622314693
:106D400025F0D8F97879012805D138460C30B91DDD
:106D5000062225F0CFF9B81D0622314625F0CAF9E2
:106D60000898007C022101437971059EA179387948
:106D7000FD220240480802230340D0183871090759
:106D800002D4DF21084001E0202108433871A079B6
:106D90004107C90F09AAD37906401E430E43D67195
:106DA0006169002922D00BAE102730463A4625F003
:106DB000A1F93046394623F05FFF7F4800780D2760
:106DC0007E4EC1B28D4211D23168C9190A460D3AC0
:106DD0001278FF2A07D00BA8102224F0ADF8012862
:106DE00005D0754800786D1C1E37EAE7FF2509A815
:106DF00081790026009610AA334611F03DF8FF2D48
:106E00001DD034281BD16A48C07C012864D00028DA
:106E100015D16A4801681E226A438818401C895CA3
:106E20000025009510AA2B4611F026F8002806D15F
:106E300010A800780CF0BCFB002800D1A0E009A845
:106E40008179009610AA334611F016F8002824D054
:106E50001FF08EF910A9087010A800785449097D18
:106E6000884218D2A26825460C352ACD0F690095B4
:106E700001910297039609A90BF06CFF0546A088C3
:106E800016F084FC002D57D010A800780CF090FB71
:106E90001CF0EEFA25E0152523E060690028DBD020
:106EA00010A8017806204843233010210BAA24F0B3
:106EB00099FD0028D0D10BA8FF21102224F010FA50
:106EC0000028C9D109A98A790120104024F028FBA3
:106ED000C2E7C04668750020A08805211CF0EEFCC2
:106EE0000125A0881FF064F960780B2802D1A088E2
:106EF0001FF094FD2E4EF06A002812D04368002B3C
:106F00000FD0A0886278012198476078002808D1C6
:106F1000A079C00705D0F06A4368A08803212A46FB
:106F20009847012523F068FF002826D01F480078E5
:106F3000042111F0DFFB20E01D48417DA0880029DD
:106F400002D01FF035F901E01DF0D8FE3546CBE741
:106F5000D00701D0100708D461790022284613F029
:106F60005FF809E009200242F6D00BA80178A37C63
:106F70000096284619F086FE0125284611B0F0BD7E
:106F80001CF076FA1FF0F4F810A90870A1680891B7
:106F9000E1682369626900292F4600D00F690092D9
:106FA00001910297039509A9089A65E7BB6E002035
:106FB000687500200904000026710020C8700020B8
:106FC000F0B589B0F74CA668002E3DD03088411E40
:106FD0001F293CD801228A40FB490A4237D0207839
:106FE000002800D18DE2012420461FF0ADFD0028CD
:106FF00004D001201FF0E4FD1AF046F908273846B6
:107000001FF0A2FD002804D008201FF0D9FD1AF0BF
:107010003BF926F077FD002804D010201FF0D0FDAA
:107020001AF032F9308804F07FFD0546002869D057
:107030002888102800D9A3E021468140EB4801426E
:1070400000D19DE068689EE01EF032FC5CE24028C2
:1070500008D0802806D001210902884202D0E449E4
:1070600088424EE2E3484078002854D026F04EFB98
:1070700026F044FB05460768A08804F055FD0697F6
:1070800078682F460790DB4CA07826F037FB0490F9
:10709000012000021FF094FD059025F061F9089091
:1070A000A879E0700021022228460391154626F0B7
:1070B00013FD032800D127E204463088402805D17B
:1070C000B87926F00BFB012800D11DE2089E002EA6
:1070D00000D119E126F0BEFB04460798C069F169AA
:1070E00022F0C6F900280BD12E46FB482418079839
:1070F000C0690899C96926F06DFDA04200D904E174
:10710000042602E1BB484078002800D1F9E1079548
:10711000059700273EE06088C00600D1F4E12546CF
:10712000012420461FF010FD002804D001201FF08C
:1071300047FD1AF0A9F808201FF006FD002804D02A
:1071400008201FF03DFD1AF09FF826F0DBFC002818
:1071500004D010201FF034FD1AF096F8A88804F02F
:10716000E3FC002800D1CFE105460088102800D9B3
:107170001DE184409D490C4200D118E16A681BE181
:1071800028461AF081F89B494978002936D007959E
:107190000597074626F0BAFA26F0B0FA05460668C3
:1071A0007068069020021FF00BFD25F0D9F802460A
:1071B0000895A8798F49C870002F04974AD0079D79
:1071C0002846314606F012FD0446089F38462946F7
:1071D000224626F081FCA04203D00328044600D1B9
:1071E00092E1022C5BD0042C61D11FF0CBFC8028F3
:1071F000059900D00721F048017085E10446002080
:107200000122294626F068FC032800D17CE1AE4229
:1072100000D1AEE02888411E072900D907E1880087
:1072200001A108588746C046497200002B7500002E
:10723000037500003375000003750000037500003E
:10724000037500003B750000002C00D15CE1FF20BD
:107250002146D6E003960224002A079D47D05520F8
:107260008000089F385A164626F03CFC019006988C
:10727000C0690296F16922F0FBF80028039E0CD148
:10728000CB480199081801900698C0690299C9690C
:1072900026F0A0FC0199884298D8042496E731880A
:1072A000B879802925D1069925F0E1FB2AE0002D47
:1072B00000D126E12888411E072900D9A9E08800CD
:1072C00001A108588746C046E97200001775000002
:1072D00003750000217500000375000003750000B0
:1072E000037500003F7500002046049989E0039E65
:1072F0006BE726F0F3F9012800D105E1B87906998A
:1073000026F044FA304644E12646A8484088C006A4
:1073100000D1C9E00296012630461FF015FC002876
:1073200004D001201FF04CFC19F0AEFF08201FF024
:107330000BFC002804D008201FF042FC19F0A4FF29
:1073400026F0E0FB002804D010201FF039FC19F0D3
:107350009BFF9648808804F0E7FB0546002878D01C
:107360002888102868D886409248064264D06C6805
:1073700066E03088411E072900D9E3E0880001A1BA
:1073800008588746A9730000537500004B7500002C
:10739000617500004B7500004B7500004B750000D7
:1073A000A9730000FC6E0020002CABD1ACE0284695
:1073B00019F06AFF02462888411E072924D8880050
:1073C00002A108588746C0468B800080F9730000F0
:1073D000197400000975000021740000097500008F
:1073E0000975000009750000297400000201010000
:1073F000FFFF0000F46F0020002A00D184E0FF208E
:10740000114626F0BFF97FE010287DD1002A7BD0FD
:10741000AFE0102875D1ACE0FF20002329469CE0A6
:10742000FF20002329469FE0002A6DD087E0102826
:1074300067D1002C68D09CE0284619F025FF04464F
:10744000002C06D02846069906F0D0FB0646039489
:107450001CE02C46089D002D16D026F0FBF90646B0
:107460000798C069E96922F003F800280AD150485A
:1074700036180798C069E96926F0ACFBB04201D91B
:10748000022602E0042600E0029E25460021022298
:10749000384626F021FB022802D0032834D00646C5
:1074A000022E01D0042E0DD1022E68D10498B842CC
:1074B0002FD006980188B879802927D1079925F01F
:1074C000D6FA26E0002D1CD02888411E07294ED868
:1074D000880002A108588746901A0000FD74000039
:1074E0009975000079750000A3750000797500009A
:1074F00079750000797500003F75000030460399EA
:107500007FE7002024F0C6F909B0F0BD079926F006
:107510003DF906983DE020462946049A069B1CE06A
:1075200020462946049A069B1EE0FF200023294698
:1075300012E0FF200023294615E0002CE4D025F0BE
:1075400048FDE1E7102800D1DCE6002024F0A2F994
:10755000D8E6FF2000233146224626F04AF8D3E73A
:10756000FF2000233146224625F097FCCCE7102867
:1075700002D125F0AEFFC7E7002024F08BF91FF001
:1075800001FB802801D0072200E0082205980A4963
:107590000A7014F0BFF9B7E730462946039A079BF3
:1075A000DBE730462946039A079BDDE7FC6E0020A7
:1075B000901A00000201010019710020F0B593B08B
:1075C000002800D12BE204461B20000120180D905A
:1075D0005B20800020180E90FF2001466631621863
:1075E0002321C900611809910146063161180B91E8
:1075F0002146F0310F91214684311091264677368D
:10760000214676311191214667310C910E302018B8
:107610000A90501C02902046E03006902046A4308C
:1076200005902046D03004902046B4300890204683
:10763000BC3007901F4F1292B07A0025002800D16D
:107640005AE2317808462D380D2800D8ECE1881E22
:10765000152846D8800001A108588746337A0000D3
:10766000F5760000B9760000FF7600003377000061
:107670008D770000F57600009B770000F57600001E
:10768000B1770000CD770000F3770000FB770000B2
:107690001F7800004D78000089780000BD78000058
:1076A000F5760000C9780000F5760000E778000064
:1076B0000F790000DC6D002026F08CF800D0C8E1C6
:1076C000F87A002800D1BCE100200C994871FC2117
:1076D00026F060F9A0790899079A1DF087F8129AA8
:1076E000AAE7FD2900D11FE1FC2900D104E2FE290F
:1076F00000D1DCE1002024F0CDF8129A9CE726F0BE
:1077000069F800D01CE1F87A00280F9F09D0012108
:1077100010988175A0790A4626F08EF900207860CD
:10772000B860B87B012800D08BE1062126F032F941
:107730004DE126F04FF800D08DE1F87A002800D115
:107740007FE1608CE083204619F06EFD01250C9FDF
:107750003D7020461BF032FC7D710F9D297B0B98FC
:10776000027810201040012900D033E1002808D011
:1077700000201299087048780999896C490818F016
:10778000F7FDA079002120F05BFA32E1072126F015
:1077900007FA012800D13DE1AEE126F01BF800D048
:1077A0005BE1F87A002800D14BE1608CE08331E1A5
:1077B00026F010F800D0D6E00F98C07B012800D04A
:1077C0003FE1FC2126F0E6F8129A35E726F002F8B0
:1077D00000D044E10B99087C012800D05DE1487C91
:1077E000012800D016E125F084FB00201DF00BFDE0
:1077F00010E125F0EFFF4BD036E125F0EBFF00D094
:1078000034E10F9F387D032800D1D6E0022800D054
:107810007FE1A17900200A9A1AF076FBD4E025F0E6
:10782000D9FF00D02BE11079012816D0D07801289B
:1078300000D080E00020D070A179109DA889420876
:10784000EB89288A000900901A201AE025F0C2FF6F
:1078500000D016E1107901286DD10E98007E0F2816
:1078600003D0002024F016F8129A002010710E9810
:10787000407EA179109DAA895208EB892D8A2D0995
:1078800000951CF047FFC5E025F0A4FF00D0FAE00A
:10789000F87A002810D0002210988275A07901276C
:1078A000394626F0C9F803960C9E377020461BF027
:1078B00085FB7771AB4F039EB87A3EE025F08AFFD7
:1078C00000D0E2E0F87A38E025F084FF00D0DEE076
:1078D0000D9A107881065AD4810700D4B1E0FD21B9
:1078E0000840107065E025F075FF00D0D1E00D9ADA
:1078F000107B410614D4C10700D081E0810700D479
:1079000011E1FD2108401073A1791A207EE025F0D5
:1079100061FF00D0BFE00D9A107B410600D490E0DB
:10792000BF210840107375E01098817826F032F876
:107930000120119914E01098007900286AD180E0A4
:107940000F990878012800D1D9E04878002800D1A3
:10795000D2E006980599049A1AF018FF01200F99B1
:107960000870129A68E60B2126F01AF9012800D057
:10797000C2E000220F98C27310988275A079012589
:10798000294626F059F811980570129A54E6DF211D
:107990000140117001070CD5D72108400D990870DE
:1079A000A0790E9D298EAA8E6B8EED8E00951CF00F
:1079B000F9FE00200E9988772CE0A1791A200A9A06
:1079C0001AF0A2FA00203875204619F02DFC129A00
:1079D000644F31E6002807D00998806C420862485D
:1079E0002146029B25F0A6FCA0790021012220F06F
:1079F0000DF95C4F002028732874E881129A1BE669
:107A0000FE21084010730E98407EA1790022134693
:107A100017F03EF8204619F007FC129A0CE60020F9
:107A200023F038FF012567E0204626F03FF80546A1
:107A300062E025F0CFFE5AD1B87A002801D0162195
:107A400003E025F0B7FB57D12221204622F0ACFFFE
:107A5000E8E704214CE006214AE0092148E0012042
:107A60000B9988740C2143E00D2141E00E2126F092
:107A700097F81199087001200F9908753CE00F21C3
:107A800036E0102134E0112132E0122130E01421DF
:107A90002EE016212CE017212AE025F08BFB2BD1BC
:107AA00025F027FA222528461DF0ADFB45E0109869
:107AB000817808460C38082842D8800001A2105866
:107AC0008746C046E97A0000417B0000E97A000061
:107AD0004B7B0000417B0000417B0000417B0000AC
:107AE000417B0000E97A000025F054FF0FE00221FD
:107AF00026F056F811990870284613B0F0BD0521FC
:107B000026F04EF80128F7D100250F988573012043
:107B1000F0E725F04FFBEFD1A179222528460A9AFC
:107B20001AF0F2F909E025F045FBE5D1A17922250B
:107B300000222846134616F0ABFF2046294685E76B
:107B40000025284623F0A6FED6E7FC2125F022FFDB
:107B5000A0790E9C21886288A388E488009418F09C
:107B600063F9C9E7DC6D002085D80100F0B593B05A
:107B70000127384620F038FA012800D087E22E4D40
:107B8000287825F058FC002800D180E20646002025
:107B90003072301D11F0BAFC04F038FA002854D0CD
:107BA0000446304670300D90FF200690E6302018D5
:107BB0000E902B20C00020180F90A9204000201804
:107BC0000C9020462E3011900A976771072008907C
:107BD0001EF0CBFC19494878401C4870A079B0725F
:107BE00028781749087040200FF0FAFA2060F06DED
:107BF0004C3000210B9113F025FD07460346293335
:107C0000F06D1096316E4A78016BD006099320D43E
:107C10003320C00020182268D1605D7803232B40F8
:107C20009B0001A5EB589F46457C00005F7C00004F
:107C30006B7C0000717C000000710020F46F00205C
:107C4000FF7000200B23DB010BE0812025F06EFE8E
:107C50001DE20B20C00108182168C86010E02D2328
:107C60001B01C918D1609C4906E0B5239B0100E0C7
:107C70009A4BC918D1609A4909880F9A5187018097
:107C80000D9D0C9AB8794006C10F53208000201832
:107C9000117039460831934E06220592B047287874
:107CA0000E99087020462430394614310422B0471A
:107CB000204628303946183103220792B047F87E13
:107CC000119908702046303039461C313D46022754
:107CD0003A46F24B98472046323029461E313A4602
:107CE000EE4EB04720463430294620313A46B04760
:107CF000A08E6084204636300D95223529460C979B
:107D00003A46B0471199087840000870208E40002C
:107D10002086608E40006086E18E0901E18689B28E
:107D2000628C521C83B253435A00914200D8C9E07E
:107D3000000400D1C6E00720DD21049180010E90EF
:107D400025462C352046119923F0ACFA0527A7814A
:107D5000204622F03AFE264662360D9924313046FE
:107D60003A4624F0C7F9099F38784009287022F074
:107D700095FC6082109D698D401A0F99C8803878F3
:107D80001F21014011988173204631461CF0B4F840
:107D9000286E4078C00603D5C148006825F09EFDD6
:107DA0000498400009900E9820180390BD4801687F
:107DB000A27938200E9042438818BB4B8B50BB49A8
:107DC0000B9D456081600C302C21049125F064FAF4
:107DD000B7480068A1791C2779434618122130461C
:107DE00025F05AFA0B20029070827561B561B04897
:107DF0000068A17901974F43C019AA4B1A680E9DDC
:107E000069435218106318684018AA4941631098D2
:107E1000006E4078C00603D4A949039801600EE0C3
:107E2000039AA5488078400601D4116807E00D98B0
:107E30008079800601D5A24900E0A0491160099827
:107E4000251820468847014696480268A0790E9B6F
:107E50004343D218049BD154119A1173917AD17271
:107E6000109F3A6E5178C9063ED4F86DEF21890013
:107E700041182D23C75C907D83280A9A02D00328DD
:107E800001D102222A710A7812A90A7023F0FBF9A3
:107E9000384625F059FB002814D012A8017807981D
:107EA000014020461DF026F800280BD07D480068D0
:107EB000A1790E9A51434018824909783A4625F033
:107EC0007AFB29E081480078802110F013FC3B21E7
:107ED000204622F069FDDAE0E8700020B80F0000CB
:107EE00032700020F5C0020029372978002904D11A
:107EF000002023F0CFFCA07929782A791BF018FF05
:107F0000204625F080FE67480068A1790E9A51430B
:107F1000401839782D228154654E31683546A07954
:107F2000019F3A46424389180A9E0E74626A4A616A
:107F3000A26A8A6117F0CAFC2868A1794F43C01968
:107F4000614A136814254D43585110684019A066C2
:107F500057480068C019374608302067554DE81C5F
:107F6000152125F099F90B9828807F20A870574893
:107F700000780426314610F0BDFB1098006E417861
:107F8000C9060C9909D43A46807D07990840032810
:107F9000059800D0304601461746208E0E18A6617F
:107FA000608A7043192109011EF0C2F8411C616109
:107FB0002168CA68464B5E43B218464BD218101A65
:107FC000384E3268A3790E9D6B43D218D061886019
:107FD00090883843FE21884390803068A1796943B6
:107FE0003A464718FA71F8692668306160694000BE
:107FF00011990978364D694340180299C901401812
:10800000232109014018F88580B20F990860618E1C
:108010003148027C437C1B029A18837CC07C00029E
:10802000C018000480180068484364211EF080F8DE
:108030006843284940189130B862776025F00CFDFC
:10804000002809D00698063020180078000703D5CC
:108050000E21204618F04EFD204808990170A079A5
:108060000D49887021681E4A4A610E4B19680E9DA1
:10807000684309181B4A8A611968081821210902F6
:1080800001611868A1796943401816214161FEF722
:1080900097FF13B0F0BDC046F46F0020F5C002009A
:1080A000507C00209470002004100000D18A000051
:1080B0009C700020DC6D0020AA6E00207D2B020049
:1080C0006943020003710020E0700020FB70002073
:1080D000C4090000BFFAFFFF800D030019710020E2
:1080E000D12B020049100200F0B5A5B00446E848C3
:1080F0004068002802D08047002842D00321FD4B71
:10810000FD480078421E1394002C0E9200D00122EC
:108110000904169159780F919D78DA731F46183724
:10812000002415941495C0B2844222D2A5421BD0DB
:10813000E5B2002117AA04262846334623F0BAFEEA
:1081400017981699084202D01599491C1591304389
:10815000C0B27C2806D10621F8262846324623F0F4
:10816000B5FE3E70E34B149D641CE34800780C3769
:10817000D9E71599C9B2401E884204D15879002820
:1081800001D100202AE201200C901398002800D190
:10819000102009900C98C0021290002008900590C1
:1081A0000F9D0E9C0899200400D1E5E11591D87B24
:1081B000002801D10120D873EEB2002717AA0423AA
:1081C0003046394623F076FE17981399002913D0CC
:1081D0001699084213D0701CC74909781DF0A8FFF2
:1081E0000D46C44B129818825973D87B401ED87321
:1081F000641E1599491CD6E70B970F9D02E00E945B
:1082000015990B910F95C0B2702804D00F98C0B289
:1082100070211FF063FD1498C7B2002517AE042328
:1082200038462946324623F045FE3078FE2803D0F2
:10823000FE2138461FF052FD0621FE263846324602
:1082400023F044FE0C2210467843E74C21461631B9
:1082500010970F18B81C0790BE70149820731298CE
:1082600020820F986073C6B21192104670430818AE
:10827000C0880D906082FF20A073A5827D208100C0
:10828000DC48049125F008F8D6480570E07BD84911
:1082900071180818D5490E7800B231461AF04CF919
:1082A0000F9B22461491B81D0690F8880A90109FE3
:1082B0001595F6B20D99DCB2BC4200D1CAE0E807D0
:1082C00000D0DDE08FB2162F19D81598002803D002
:1082D00011986043101881831498C0B28442109F93
:1082E00000D1D7E0601C25F021FCBF4A0B460846B0
:1082F000119948431018818B00251595DBE7B94883
:108300000078002800D03CE70F930D91CE1FB1B24A
:1083100018AD20462A4617F05FF9E9890846103063
:10832000B8420CD8A87A962809D1751A18A8427AAA
:10833000A8B20E46234619F02CFC002834D00D9923
:10834000491E0846A84A0F9B0B9E109F0D460D9094
:1083500080B2162800D80DE1362803D80D980646BD
:10836000163E01E020260D98801BB3B20D9081B21D
:108370001DAA204623F09EFD9B4A0F9B29463004F0
:1083800008D0B0B21DA94018401E0078962804D02D
:10839000761EF3E70B9E0D98D9E70D9830180D90D7
:1083A00000259248067884E7029518A8C07A00252F
:1083B000C10707D180078C4A0F9B109F08D40298F1
:1083C0000D90EEE702980D90874A0F9B109FE8E70B
:1083D000F61D0A9880B2B1B2091812980191814233
:1083E00001D90C9DDDE77F480078029F310420D041
:1083F00000281ED10D96B6B20498864200D3049E82
:10840000B9B2204603977B4A334623F053FD0A9FB7
:10841000B9B21098774A33461FF04EF87149087088
:10842000BF190A97039FBF190D998E1B6E4A0F9BA8
:10843000DCE71598401C1590019CA0B21299884267
:1084400004D102980D900A940C9DBFE702980D90FC
:108450000A94BBE763480078002800D091E664489E
:108460003018001900B231461AF066F85E4A0B4621
:10847000C8B2119948431018818B139C0B9E11E0D0
:108480001598002807D0119844431019818302E001
:1084900098770020149B139C0B9E5248007800286C
:1084A00000D06EE608460A9911829082937306986E
:1084B0000180517B1220125E0123384621F0AAFA76
:1084C0004948817B1420484A125E0223384621F035
:1084D000A1FA4548008A1299081A002C04D009997B
:1084E000884201DB0C9905910999884206DB7C21C1
:1084F00005E0C046D8670020FC700020782138468F
:108500001FF0ECFB0DF028FE05463846364FF97B90
:10851000491BF9730621FC24224623F0D7FC079857
:108520000470B878B1B26918081830490E7825F08F
:10853000FDFAB9701491481CC0B225F0F7FA7970B1
:10854000B97B119848433818808B102804D1481CF7
:1085500025F0ECFA244B00E03B460F9113980028DD
:108560000C9801D00598C0430E99491B0E91C00785
:1085700002D015E6139C90E77C2020F0CBF804464F
:10858000FF281AD17E2020F0C5F80446FF2814D118
:1085900015494C780C2060430818807DFF2808D0CE
:1085A0008878124909784018401E19F0C5FF0C461A
:1085B00003E07E2120461FF091FB0B4DEC70E0B2F2
:1085C0000C2141436818808BE880A878FE211FF0B9
:1085D00085FB00206871288A1299081A00B225B01C
:1085E000F0BDC04698770020D8670020FC700020BE
:1085F000FFFF000054590020F0B59DB00446FC4E2A
:108600003078FC4D2870032800D025E10020307020
:10861000287011A824F0A6FE002800D01AE101203D
:108620000E9011902846243011A91DF00DFA002853
:1086300000D00FE10E98C0020D90F44F5E21384635
:1086400024F02AFE0C370A21FF2238460C9224F02F
:10865000C1FC20F055FD0020109021461CF0C2F90D
:10866000A86029460C3124F0F5FE2C696D6920467E
:1086700029461DF05DFDC2B2062A00D30622E3485A
:108680000270E34F3A700D98854200D0E2E0D002CC
:10869000844200D2DEE0DC488068002800D1D9E0C6
:1086A000DA49109E4E710C9BCB700E98C002C880A8
:1086B0000696099607960596049608960A960193DB
:1086C00003930293D1B28E4200D3C7E0F4B20025E7
:1086D0001CAA04232046294623F0ECFB1BAA2046B3
:1086E0000F952946F54DA84701271AAA2046394675
:1086F000A847022119AA2046A8471C99C8B20246D9
:10870000703A0E2A04D83B469340ED4A134203D1F7
:108710000246FE3A022A03D28A0CEA4B9A421FD042
:10872000204610F089FBE1490870002800D0CCE019
:10873000354600261CAA04232046314623F0BAFB06
:108740001BAA204631462E46DC4DA84701211AAA15
:108750002046A847022119AA2046A8471C99C8B25A
:108760000C2210967243D24B9E1833461633187063
:108770000A0AF2758903890F71761BA98978317607
:10878000FD2801D9102127E01BA90988CE4A914272
:1087900022D10B930F9814900D9DA8B2051FA9B27A
:1087A00014AA0423204623F085FB1498411C03D10E
:1087B0002946C64A1140F0D139460B9BFAB2042A29
:1087C00006D8C2B2FF2A00D03946000A7F1CF5E75E
:1087D000C8B2281881B21878B1831AA98978B176FD
:1087E0001A99F18319A98978F17619993184702839
:1087F00010D07828AF4F109E12D07C2814D07E283D
:1088000017D0FE281BD0FF281ED10698401C0690CA
:1088100002961CE00898401C0890A64F109E16E097
:108820000498401C049012E00598401C05900396A3
:108830000DE0B0B201900798401C079007E009983E
:10884000401C09900C9602E00A98401C0A90761C85
:108850003A7837E7012030701DB0F0BD0A98000665
:108860000BD10998C0B2012807D80898C0B20128D6
:1088700003D80798C0B2012810D98F48042101708D
:108880000024D1B2E0B2884210D210F0D5FA874A63
:10889000117801431170641C3A78F2E7D4B206985B
:1088A000C0B2A04214D18448002101700020804C45
:1088B0006070511EA170E070A18BE1807E211FF0DD
:1088C0000DFAA078FE211FF009FA78480078C3E776
:1088D0000898000622D00998000604D106980006E0
:1088E00002980C9073D0744802220270704E0C9C57
:1088F000B470A0B2401C1DF01BFC7170E4B22046A5
:1089000010F09AFA69490870FE2120461FF0E6F936
:108910000E9870710020FFF7E7FBD6E70998000674
:1089200019D065480E9A0270614C0C98A07080B204
:10893000401C1DF0FDFB6170039880B2FF2819D127
:108940000198FF284AD15A4AD1700C204843101888
:10895000808BD080B9E70598049908430006554FED
:108960008BD021F043F8A04200D38EE0524803217F
:1089700001704FE04E4A0399D1700C2141435018C9
:10898000808BD0801828A0D3C11F0398C0B289B2B1
:1089900014AC224616F020FEE07A4007BAD54449CE
:1089A000C878C98814ACE289891AC91F00220092CC
:1089B00089B20323224607F0C3FD002885D1A1898F
:1089C000002982D014A8007C1DF0F2FA7DE721F086
:1089D0000DF83949A0420FD306200EE03449019A20
:1089E000CA700C2050430818808BC8806DE7C046C1
:1089F000A97B00209877002003200870032809D065
:108A0000062852D061E7C04698770020D86700203A
:108A1000FC70002020F0EAFF0446254E30730C2540
:108A2000284660433018817E7173C07EB0730DF0AC
:108A300093FB00191F490C7821461DF079FBB1709A
:108A4000481CC0B221461DF073FB71707C201FF0E2
:108A500061FEFF2810D17E201FF05CFEFF280BD1A5
:108A6000FF201FF057FEFF2806D178201FF052FE8E
:108A7000FF2801D10E4840780D49C870C0B2454367
:108A80004819808BC88088781CE70698000609D0B2
:108A900007488078FE211FF021F9064801780298E6
:108AA0000C903EE7044806210170FEE7987700200D
:108AB000D8670020FC70002008710020F1CB020074
:108AC0000151000083250000FFFF0000FCFF0000B3
:108AD000F0B587B016460546041D5004059502946E
:108AE00042D40191C805C00E00D188E00120009059
:108AF000000431468143039100200690854C86484E
:108B00000068042800D286E0049600201FF0EAFDE9
:108B100080B2451D2F4681480740606939461CF0E8
:108B200095FD06466069864204D0082006990143F7
:108B300006916661002E67D0A908F0893546103588
:108B4000281819F0CBFEF0892918E279CA70C019EB
:108B5000F0810420069901430691059D286B083099
:108B600021F07CFC039ECAE704962E462C36FC4C72
:108B700021F0F6FB03902F6B7969B86900912160B1
:108B80000002F5490860F548808DF64CE08120F040
:108B900069FFF249888600200190EE490883069714
:108BA000788AED49888010206071688820F06EFF17
:108BB0000446307816F04CF829468227002821D048
:108BC000054608462D3000781EF05AFC002800D0DB
:108BD000B8E0032C00D0B4E00698007C414241414B
:108BE000284602F00FFD1FF035FDDA48019AC286D3
:108BF000B056C1B2402900D2D5E01146D5E00020E0
:108C0000069011E00D469EE085206071D8480099DD
:108C10000160059D049EA079002804D0686BD249AC
:108C2000C96817F06DFE029C0198800431D5049646
:108C3000CC4E7089CF494968411A4220375A039176
:108C4000B94225D24420345A286B21F0D1FB0028A8
:108C500010D0022101728189491DC74A11407F1A33
:108C6000B16B884202D10020B063F063641E0398A8
:108C7000B842E9D3039887420DD1002C0BD4383683
:108C800003987081B481102006990143029C09E089
:108C9000049E06990AE084207071B54801210160A4
:108CA000029C0699B448001D049E06437006C70F37
:108CB0000F430120C503681C0199014238D00320ED
:108CC00000BF00BFA44880880599096B4882022430
:108CD000A4484079102825D1019828409F48008851
:108CE0001ED1411E062900D9A1E01320890001A24E
:108CF00051588F46258D0000118D00002B8E0000ED
:108D00002F8E00002F8E0000338E0000378E000063
:108D1000142007E04C660020CC110840FCFF010045
:108D20001BF0F0FE2743029C2178000208182080E7
:108D3000B807059D14D5686B8B49C96817F0E0FD2D
:108D40000EE02746059D049EF8B20F2801D80020AA
:108D500000E00120029C21783A0289182180470016
:108D60006078000203210902884213D1F00306D57E
:108D7000286B083021F072FB0120000486437E48F6
:108D8000001D064206D0286B764A38320023D943AC
:108D90000BF042FBB80703D520F070F923F046FC36
:108DA000384607B0F0BD402211436E4A7F240028A8
:108DB000059D049E01D4084600E02040674948868E
:108DC0001179002904D000060099484064490860E0
:108DD000FF20614988822846039919F0FDFD074666
:108DE0000F28B1D8686B002500282946594B5D4EE5
:108DF00044D05D49C96819620021417084700278CD
:108E0000D2071CD1544AD186118751879187D187C7
:108E1000198059809980D980198159819981D98186
:108E200001758160C160016124E015207AE710209E
:108E300078E7412076E7022015F076F872E7017AAC
:108E4000454AD186417A1187817A5187C17A9187C3
:108E5000017BD187417B1980817B5980C17B9980BF
:108E6000017CD980417C1981817C5981C17C9981A7
:108E7000017DD9810078022101404908B171029831
:108E800000780128284604D13748C0680599C96987
:108E9000081A019020F0C2FE20F006F930817561B9
:108EA0000598006B083021F0D9FA012721F004FF62
:108EB00070810698017C00292B4604D0428A182133
:108EC00011404B424B413E04264C22463832A563AA
:108ED000E563177255819581022103920BF09CFA8C
:108EE000A2791E48808D2149002A02D0803108468F
:108EF00002E04007400E4840059D0499B1430E46EC
:108F000023F00EFF0698007C002806D0E98D01981A
:108F10004018012803DB032702E004240BE0132799
:108F2000002902D0012800DA0EE7002900D1084606
:108F300008494882032423F043FE022000BF00BFFB
:108F40000B4804600023D9430698039A0BF064FA97
:108F50000327F9E67C2009403C200940062009400F
:108F6000401408404C660020E46B002071A1000012
:108F700030100840CC110840FCFF0100F0B591B062
:108F8000002610960F961E24002800D1AAE105465F
:108F9000C76D0FA910AA0BF077FF072801D107248E
:108FA000A0E1284629300D90286EC07C7F2804D18E
:108FB000E84800780D9908700BE040B2002122F0DB
:108FC000DDFB0D990870C0B224F0BEFA002800D174
:108FD00032E10194284659300990384661300C90AE
:108FE0003C462C34391DDC4838600E918E700E8062
:108FF000FE71DA48B86038460C302021029124F026
:109000004BF907202070601C0F2124F045F90D98C2
:10901000007824F0EEFD6070286E407A20700E9B80
:10902000188801221043FE21059188431880079279
:10903000FA7124F077FC7D21490140180490F86111
:109040000B960894A670A87B012802D1079808996E
:10905000C8703846B8300690384680300A90384696
:109060003C30394664317863B9632A21009024F09A
:1090700013F97F200C9948710B98B866F8660E9723
:10908000386704982861B648007809990870B5488F
:10909000007800280D9E12D0707E059908400228A5
:1090A0000DD1B14C20680D3023F018F9002806D1FD
:1090B000284630302168C91D062223F01BF8707E37
:1090C000411E8841089B1946343103910995342487
:1090D0000494195DFD220A404000101818550E989E
:1090E0005430099C3034A14B06262146324698471D
:1090F0000C980B99C1769E480A9D6880079FAF80A7
:109100000E98883021463246984B9847EE71069D5E
:109110000B9828709648E8802F8108980499405C45
:10912000099F4001402208921040001DA8720E982D
:10913000C430214632468D4B98470496EE723D4628
:10914000B87B012801D0042878D1039E30784001F3
:10915000089908400D9FB97EC9014018401C0A9922
:1091600088710C20C8710E988E302C463C34062530
:1091700021462A4622F0BEFFB87E3178079A104079
:10918000059A1140081830700E985A3021462A4628
:1091900022F0B0FF0A9B069D0E9C21467431B0342C
:1091A000D879801D1880E87A801DA880734880785F
:1091B000400606D59879029A10439871A87A104310
:1091C000A8720E9E35464435284622F0DFFE28461A
:1091D000214622F0DBFE34464C3421F095FA01465C
:1091E000204622F0A3FE0998C06EC17800790002E3
:1091F000411802D06248484300E062480E9A9062EB
:109200006148002402211461516190615548007841
:10921000002804D00C9A10781C21014307E056481E
:10922000006819F007FB0C9A1078E32101401170D7
:109230000F985649818055E0122453E0686E00284B
:1092400010D0C11C0A78497809028A180AD0411D39
:109250000E988E3023F058F8686EC0780A9AD1794B
:109260000818D071A86E0028049E10D0C11C0A787E
:10927000497809028A180AD0411D0E98CA3023F095
:1092800043F8A86EC078069AD17A0818D072A87BE5
:10929000022800D00B9E032800D1022603980078F4
:1092A00040010899084080190A998871286E807CCD
:1092B0000C9B197803220240FC200840801818708B
:1092C0002C483C21405C01280FD124F0CFF9044602
:1092D00024F0D0F9014620461CF0CAF80028019C71
:1092E000069D2ED0204611B0F0BD286E807C0599D9
:1092F000014002290ED1204909680A794B791B02E5
:109300009A188B79C9790902C91809048918091FA3
:10931000009A1160022108430328069D0A9B00D091
:109320003AE71548006801794279120251188279AA
:10933000C0790002801800044018001F0E990864CC
:109340002AE724F093F923F077FB009908600A9B41
:1093500022E7C04603710020011000009151000077
:10936000A57C0020FC6F0020C8700020F5C0020022
:10937000030200003078002060700020AA6E0020F8
:10938000409C000000204E00C5480200AC0D0000CB
:10939000F0B591B0DD488078FF280DD024F0AEF90B
:1093A00005460446FF202030295C012906D12818F3
:1093B0004178204621F0F8FA11B0F0BD0F204001AD
:1093C0002918DB20400028180F909F262F4676375B
:1093D000B87C02280C9113D1087900070ED5A17929
:1093E000608E4208A38EE08E0009009000201BF0E2
:1093F00091F90C9A1079E721014011710020B8749D
:109400004B21912270002B4696330D930F9B1B78B6
:10941000022B02D100230F9E337006978900520061
:109420002E180D980078022802D100200D9B18708C
:109430006F180995A8180E90318B002902D0B07DC5
:109440000FF058F9072002901DF08FF860892081F5
:10945000AF4A517C507B07904318D57B5B19907BBA
:1094600010901B18107C1B180B93AA4B1B680893B9
:109470000A94A3793824059404935C432B46089DF1
:109480002C192C25645D0394BC88089164180799F5
:10949000BC80D47CFD882C19FC80147D3D892C195E
:1094A0003C817C8964187C81BC89109D6419BC81D5
:1094B000FC89E418FC813C8A24183C82947C358821
:1094C0002C193480547A75882C197480D47AB58814
:1094D0002C19B480947AF5882C19F480147B758942
:1094E0002C197481147AB5892C190B9DB4810E9EA8
:1094F000B488641CB4803488641934807488641817
:1095000074803E68002E0DD0039840003418335A02
:109510005B1933524A20235A59182152907B1090DC
:10952000D37B107C089900292ED1109900292BD1CA
:10953000002B29D1002827D10027029D2846049915
:109540003A461BF0A6FE0A9CE7830C990868097945
:10955000294001221646D20702405018099D03D027
:10956000A079002124F00AF9694B587B002820D00B
:10957000207C002801D0E089A0812774207F012869
:1095800031D1608CE0832EE000230F9803840C9E81
:109590003068C10F0A9C099D069F42D031794A0765
:1095A000920F32D0002104981E4624F0E7F833468B
:1095B00037E00E99C888401CC880207C022600280D
:1095C00011D028462E30616949000078524A424342
:1095D00088187B21090140184E490968A279059F26
:1095E0007A438918C885069F2089A189884204D0BA
:1095F000401A27D94949884224DC0E98008800285F
:1096000001D00821D5E63E21D3E6CAB2561C029A03
:1096100016401093F8230B40F118109B0C9A106021
:1096200011712089E1890818A0811E462374207FCA
:10963000012801D1608CE083A179072001221BF071
:1096400028FE334B2B20C0002918587A00280DD053
:10965000012020773878002808D1B87C002805D16F
:109660000D980078002801D1608CE08308790028EB
:109670000BD0022804D1987B002801D1002003E000
:10968000187D002801D002200871587800280BD0DE
:1096900058682168C8601F480168A079059A42434C
:1096A00089180022CA850EE01A480268A079059B35
:1096B0004343D218D38D0B60154BD1692268D1601A
:1096C0000021E1832177743599787F2900D18121A8
:1096D000297024F0EFF9204624F0EAF92046FDF73E
:1096E0006DFF012800D167E60121204613F04AFBF7
:1096F0000B4810301DF0A0FA30460B9922460DF0B1
:10970000BFFE00F023FDFDF75BFC55E6F46F002083
:10971000DC6D002094700020C4090000AA10000035
:1097200024790020F0B589B00446016CC26A1DF0AE
:10973000E3FDE16F4A1C904201D935269BE10028E8
:1097400013D0206C8A0087180837891C384623F00C
:1097500039FCA168384622F0ABFD002807D0E56F40
:10976000691C884205D9C62685E1532683E16C260B
:1097700081E123786626022B00D27CE1052B00D9FB
:1097800079E1216C0A6801263240032B334600D36D
:1097900000235A4080230893E2500790E067204658
:1097A0003A460B4612F068FD20784000001F314613
:1097B000814008982150216C20460A461EF01CF971
:1097C000E567E16C2046324622F0A9FD626EA06E8C
:1097D000E16CA36FE56F0095A84DA847A26EE06EFF
:1097E00023F059FEA06EE26E23F055FE216F226B2E
:1097F00020461DF081FDE56FA84201D93C263AE1E3
:1098000000280ED0606CE26E216F24F0E7F8216F23
:10981000626B20461DF070FDE56FA84203D96526F6
:1098200029E1C32627E1064600280ED0A06C216F4F
:10983000A26E24F0D3F8E16EE26820461DF05CFDD4
:10984000E56FAE4203D95C2615E1562613E12646A4
:109850008036A26EE16E206F24F0C0F8E26C206DBD
:10986000216FA36FE56F009500F09AFFE06F421C37
:1098700006963260666D00252778B81E01231946CA
:1098800081408D4209DA616C304623F0D5FA0698A2
:109890000268900036186D1CEEE70893A06D002555
:1098A000069EBB1E089999408D4206DAA16C0746B8
:1098B00023F0C2FA23F02BFBF3E7E06D0025BB1E7B
:1098C000089999408D4206DAE16C074623F0B4FA14
:1098D00023F01DFBF3E7216C08788007C30F07987E
:1098E0004001401C0026049607960396089A0190B2
:1098F00090426BD90593801AB842069B00D3384634
:109900001860204608921CF06DFE07994118C8B2F5
:109910007A1E01252B4693409842029500DA0025D5
:109920002A46BA40984200DB4842059B0799C9B2D3
:1099300007911018DBB205935349C95C049AD7B25A
:109940009E00524A92197B00D218525D9200511823
:109950000006800D001F0422904308180699086035
:10996000204600F05BFA6800494989190918079AEE
:10997000895C0791474989190818C05D04902778C8
:10998000B91E45488019405C089A12181420059B9E
:109990005843424B1B18052041435918039E8E5DC6
:1099A000216C53099B00CD581F231340DD40029BBF
:1099B0001D40079B5D4045430A20059B5843384B9B
:1099C000181840190396835D019891E70798C0B273
:1099D000012811D10498C0B28000C01C069E3060DE
:1099E000274D2046A847012030602046A847022086
:1099F00030602046A84727789926032F3BD30020C4
:109A0000C0430790B91E012008908840FE30069D93
:109A1000C7B208982860002F11D07A1C204639461A
:109A200005F06CFE089828602078801E0799814018
:109A3000C94320463A4605F061FE781EE8E72078E3
:109A4000801E079F39468140CA4300210591204668
:109A50000C4B9847089828602078801E8740FA436E
:109A60002046059F3946074B9847089A2A602046AA
:109A70003946044B9847304609B0F0BDA1A7000015
:109A80001D9E0000FDF600009C120300EC0E03007A
:109A9000BC0E0300040F0300D40E03004C050300AA
:109AA000380903007FB51546D84A82181C2A48D8C1
:109AB000920001A39A5897462D9B0000439B0000FB
:109AC0005B9B0000879B0000AD9B0000C39B0000D8
:109AD000D79B0000ED9B0000439B0000FB9B000018
:109AE000439B0000439B0000139C0000319C00003E
:109AF000439B00004F9C0000659C00008F9C000071
:109B0000BB9C0000C79C0000E99C00000F9D00006A
:109B1000219D0000439B0000379D0000439B0000F7
:109B2000499D0000519D00006D9D000018240129F1
:109B300000D05CE12878022800D958E1B449887047
:109B400054E102240E2800D951E1022900D04EE14F
:109B500029881CF06DF9044649E11824012900D038
:109B600045E12878012800D941E1A949012803D11C
:109B7000CA78032A00D1F7E00871002800D035E147
:109B800000244C710EE01824012900D02FE1287820
:109B9000042800D92BE19E49C870032800D025E194
:109BA00000248C80204623F06BF820E11824012942
:109BB00000D01CE12878012800D918E19449887167
:109BC00014E1102900D0C1E09148543010222946F8
:109BD00022F090FA0AE11824012900D007E1287840
:109BE000012800D903E18A49C871FFE0012900D0AA
:109BF000ACE0287886490873F8E0002900D0A5E099
:109C000023F000FD002800D1DDE0814801214173EF
:109C1000ECE01824012900D0E9E07D48827B297816
:109C2000022A00D0B3E0102900D0E0E01021B1E01A
:109C3000012900D08AE076490A7C2878087400243B
:109C4000002A00D0D3E0012800D1C2E0CFE01824E0
:109C5000012900D0CBE02878042800D9C7E06C495E
:109C60004874C3E0072971D1691C01AE0622304651
:109C700022F058FA29780024009403AA304623469B
:109C80000EF0FAF8002800D186E03424AFE0182462
:109C9000012900D0ABE02878022800D9A7E00028ED
:109CA00000D1A4E05A498873022800D0A2E0102015
:109CB000C873012023F038FB98E0012946D12878A9
:109CC00022F088F992E0524E307A1824002800D011
:109CD0008DE0602970D1002D6ED04E48602229465B
:109CE00022F008FA01206CE0182401297FD128789D
:109CF00001287CD8464908720024002877D001202A
:109D0000487244484449602222F0F4F96FE0182474
:109D100001296CD12878012869D83D49C87265E0CD
:109D20000024012963D12878012860D83849887235
:109D300022F09EFF5BE01824012958D1002D56D057
:109D400028783349087051E0002918D018244EE0D3
:109D5000182401294BD12878012848D82C490128FA
:109D600041D10A79002A3ED1022440E01824012979
:109D70003DD1287801283AD82549C87436E023F027
:109D800041FC002828D02248012181742EE0CA1FFE
:109D90000A2A2CD2C17329E01D4DE87A002804D18B
:109DA00023F030FC002802D0E87A012827D103A84C
:109DB000007809F0FDFB08E0012918D1002D16D02C
:109DC0002878707212E020F0B5FB044650201FF096
:109DD00075FF19F04DFB0AE00FF0ECFA0446502035
:109DE0001FF06CFF03E0487122F04AFF0024204678
:109DF00004B070BD0024204623F096FAF7E7686AA5
:109E000003A9097801224254F1E7C04600FCFFFF94
:109E100068750020307600202C060300F0B589B06C
:109E2000044680202158C8080D460391E26F511C5A
:109E30004143E06DC9B28F00C019616F636C06AE1B
:109E40000BC6A807060F05A88159206EA36F0092C4
:109E5000BB4D0A46A847606E23F049FB05A8805910
:109E6000A16CA36FE26F0092B64D0A46A847E06E60
:109E7000216FA26C636E06920791089305A9895918
:109E8000E26DD2190497236EE56C0692079308954C
:109E900005AA23F040FBAA4DA847606EE16EE26C74
:109EA00006AB07C305A88059E26F521C22F0C4FF1D
:109EB000E06E216F06900791089005A88059216EE9
:109EC00023F0EEFA9F4DA847206FA16E06900790F1
:109ED000089105A88059A16DC919226E636E06AD5F
:109EE0000EC505A98959A26CE36C656F06930795A9
:109EF000089205AA23F00FFB914DA847606F216ED1
:109F000006900791089005A88059A16E23F0C8FA21
:109F10008C4DA847234660330ECB069307910892D9
:109F200005A88759E56C606F06910795089005A90B
:109F3000895906920790089305A88259A36FE06F8C
:109F4000009038467E4DA847226E606E616F06AB6A
:109F500007C305A88559E16EA36FE06F00902846FE
:109F6000784FB847216E226DA36FE06F00902846AE
:109F7000B847E06C616E226E06AB07C305A8815935
:109F8000E06E626FA36E06AD0DC505A8805923F083
:109F900087FA6B4DA847616EA06D049FC219E56EEC
:109FA00006A826C005A988590290216F226E636F0A
:109FB00006910792089305A98959E26DD219636C3D
:109FC00006950792089305AA23F0A5FA5C4DA847C9
:109FD000606EE16DC919E26E06AB07C305A8805932
:109FE000E16F4A1C029922F027FF206D23F07FFACF
:109FF00005A88159206F226E06900792089005A847
:10A00000805923F04DFA4F4DA847606E616FA26EE4
:10A0100006AB07C305A88059216EE36E069207912F
:10A02000089305A98A59A36FE16F0091464D014637
:10A03000A847226F216E206D06920791089005A80F
:10A040008059636E06AD0EC505A98959636CA76E6C
:10A0500006930797089205AA23F02CFA384DA847D3
:10A06000616F606D049D4019626C069107900892C3
:10A0700005A88059A26E06920791089205A98959F0
:10A08000E26E236F06920793089205AA23F012FA54
:10A090002D4FB847606F23F02AFA05A88059626CEB
:10A0A000636D5B1906920793089205AA23F002FAE2
:10A0B000254FB847616FA06EE26E06910790089237
:10A0C00005A88059636D5B1906930792089105A94D
:10A0D0008959636E276E06920793089705AA23F0A5
:10A0E000E9F9174FB847616FA06D4019A26C06914E
:10A0F0000790089205A880590490A26E0423039843
:10A100000340E76E606E069707901B1D05ADED5886
:10A1100006910792089505A98959226F256E069028
:10A12000079705A8C05806920795089005A8825978
:10A13000A36FE06F00900498034CA04709B0F0BDF6
:10A14000A1A7000045A90000CDA90000F0B589B085
:10A15000BE4CA078FF2803D1002021F09BFBA07803
:10A1600023F0CCFA04461B200001251820560028B5
:10A1700005D57F2108402870204613F00FF92246AC
:10A18000883221462E31A06E00680068002802D077
:10A190000020E08311E04820085C00280DD11078F1
:10A1A00000280AD1907B002807D1A879002804D183
:10A1B000207F012801D1608CEBE706950892009181
:10A1C000DD252B2007902189E08B05914E1C371847
:10A1D0006781204620F074FA012803D09C4800785B
:10A1E000012803D10020E083668137466E0007987E
:10A1F000C0000790089D287801280BD16A88B9B261
:10A2000005981EF0A7FB002804D022F05DFE2BD09D
:10A210006A8820E0A87B01280BD1208961892A8ADD
:10A220001EF098FB002804D022F04EFE1CD02A8A93
:10A2300011E0069FB879012816D1208961893A89F1
:10A240001EF088FB00280FD062892189481C80B24B
:10A25000824209D03A89824206D0501E608180B283
:10A2600023F0DAFB401EE083A61907982018069019
:10A27000B8790021012802910FD138892189491C20
:10A2800089B2884209D8727832700220B871A179F7
:10A2900000200292134614F0FBFB06980079002878
:10A2A00004D00020E0832089401C608128780128A8
:10A2B000039610D1688821894A1C92B290420AD133
:10A2C000608123F0A9FB618E4143E8880E18204687
:10A2D0000FF072F900E0668E254620355D4AE18B6D
:10A2E00004914F1C77437A432668F0681318F36093
:10A2F000594838210791415C0029019205930ED0FD
:10A3000056494978002903D055480021018006E0CC
:10A3100053490A88531C0B80002A00D190E0608AC0
:10A320007843192109011BF003FF401C6061A761FC
:10A33000049929704B4D2968A279079B5A438918C3
:10A34000CA693261059A101AC861B06008798880BC
:10A35000A18A2868A2795A43861830462E30F28D99
:10A3600049005118F185089A1278022A05D1009AFD
:10A370001278384B5A4351180180039F3A4D374A9F
:10A380005278002A17D0F2695219F26123689A6054
:10A39000019D521B1A617B2212018A1802803B78B0
:10A3A000042B03D1572292018A18028090B2069999
:10A3B00008602D4D06E0029A042A03D1E122120121
:10A3C00089180180618E2948027C437C1B029A18FF
:10A3D000837CC07C0002C0180004801800684843D9
:10A3E00064211BF0A5FE1B49414368189030B06200
:10A3F0001F4D287823F0FDFB2978C2B2304623F0A8
:10A40000DAF83978002903D1002021F043FA3978AD
:10A41000A0793A7919F08CFC204623F0F4FB11481E
:10A420000068A179079A4A4380182168486011485A
:10A4300007210170204615F021FB002009B0F0BD76
:10A44000408F0699C98808186AE7C046F46F002053
:10A4500029710020C409000030780020DC6D002044
:10A46000167C002094700020C0FAFFFF800D0300CE
:10A470000371002019710020F0B587B01227002861
:10A480002DD00646BA4D28780938052801D2212555
:10A4900026E0B07822F0CFFF002824D00446B07820
:10A4A000B44908702978002901D1B3490870206E99
:10A4B0004078C10604D4800702D5A06E002832D0AF
:10A4C000607A00280BD0A07B012805D1F078317983
:10A4D00009020818802802D870783F2805D93D461F
:10A4E000284607B0F0BD4225FAE720461FF082FD5E
:10A4F000E06D002819D025464335E66630780128FE
:10A5000022D1A07B04281FD80121814013200142C1
:10A510001AD09A4800780028E1D0994949788142B8
:10A5200005D10925DCE70C25DAE70725D8E7206EF9
:10A530004078400708D520463C30297823F0DAF8E7
:10A54000002801D00B25CBE7707800280DD030789B
:10A5500001280CD1059500252573A563207A0128D3
:10A560002AD17079E16E4871BAE71125B8E7207AEF
:10A5700000250028B4D083480068804706467D4FF8
:10A580003878012123F09CFA204619F0DBFC38785A
:10A5900079490978884204D122F0EAFB616888424F
:10A5A00071D0204622F0FDFF774801683046884789
:10A5B000204619F039FD93E7204652300390264695
:10A5C000213611201BF0D1FF01202072E572657346
:10A5D0000CF006FE60606B48006880476B490968B4
:10A5E000002902D062684A60F9E76749096888472C
:10A5F0006068674941615F4D28780021049123F02C
:10A600005FFA297811250122284601921AF041FEAD
:10A61000206E4078C00602952ED4608C18F002FBA4
:10A620003070206E007823F055FA064600280BD0D3
:10A630004C20305C002807D0E07F20210143E177E7
:10A64000E07D18210143E175204623F04FFA0028F0
:10A6500021D00546122800D042E74A4800688047CA
:10A660000546204619F06EFC204622F09AFF464827
:10A6700001682846884732E72046FEF77FFC0546FA
:10A68000002811D02CE7406822F090FF3E48016876
:10A690003046884724E7002E06D04C20305C012845
:10A6A00002D1204623F024FA206E4078C0071ED045
:10A6B0000398008800281AD0616D002917D00599E9
:10A6C000C978884213D90F2021F038F900280ED01C
:10A6D000206E007806A90870039800884870000A68
:10A6E00088700598C078C8700F2021F035F9204D8A
:10A6F000287800280DD020461DF042FC002835D0D7
:10A70000E26D002A32D0A37B2169012B1CD1906A13
:10A710001CE020480078002822D0206E4078800776
:10A720001ED01D483C21405C012815D122F09EFF1F
:10A73000054622F09FFF014628460D4D1AF098FE6F
:10A7400000280DD01E25CBE6808880004018039994
:10A75000C97923F0A5F909E0104800681AF010FF44
:10A760000298287001982072FCF72AFC049DB7E635
:10A7700019710020FE700020007100201A71002065
:10A78000F46F00201C7C0020207C0020907A0020A8
:10A7900059330100FC6F00203078002060700020E9
:10A7A000F8B444464D4656465F46F0B400B501B491
:10A7B0000B9B5B005B1C6C469B00E31A9D4610B430
:10A7C0006C46241D00266D46009CE36A2D1D9B00EF
:10A7D000EE505B00EE50E36A013B9B0098465B0045
:10A7E0009946002300240025002702E03700404658
:10A7F0003F1A9A46A346AC46B646F01B1458C859B1
:10A80000030C80B2250CA4B21E006E436343454383
:10A8100060431C041B0C00195E412C042D0C001914
:10A820006E4153465C4665461B1874410020454105
:10A8300076460437474501DCB742DADD6846001D3D
:10A84000835123462C46002504364645CCDD4E4533
:10A85000CCDD8351009B9969083102464E4604368F
:10A860001068009B9C6924684443A146002700238C
:10A87000002400259A46A346AC46B6464C46C85925
:10A88000030C80B2250CA4B21E006E436343454303
:10A8900060431C041B0C00195E412C042D0C001994
:10A8A0006E4153465C4665461B1874410020454185
:10A8B000D0591B18002044414541002F02D0043FCD
:10A8C000D35104370437764623462C4600254745A6
:10A8D000D0DD301D8742EBDD043FD351043E4645B9
:10A8E00000DDBDE710BC2068E36A9B460246914646
:10A8F0006846012720C840C97F08B5417F4120C272
:10A90000013BF7D105682F430126F741FF17FE43AE
:10A9100068463840494631400843494639406D460B
:10A92000354029435B4604C904C0013BFBD1A54621
:10A9300003BC8E46F0BCA046A946B246BB46F8BC56
:10A940007047C046F0B444464D46564670B4814602
:10A95000079CA246002720C940CA7F0875417F4155
:10A9600020C0013CF7D1B8464846083354466A46F1
:10A97000A400141BA54604B46A46121D54460127C0
:10A9800020C840CB7F08B5417F4120C2013CF7D1B0
:10A99000424617430126F741FF17FE4348466946E2
:10A9A000091D0D46384031400843494631403D407D
:10A9B0002943544604C904C0013CFBD101BC85466F
:10A9C00070BCA046A946B246F0BC7047F0B44446FD
:10A9D0004D46564670B48146079CA246012720C9C1
:10A9E00040CA7F08B5417F4120C0013CF7D1B8463D
:10A9F0004846083354466A46A400141BA54604B4CE
:10AA00006A46121D5446002720C840CB7F08754176
:10AA10007F4120C2013CF7D147460126F741FF178D
:10AA2000FE4348466946091D0D46304039400843FB
:10AA30004946394035402943544604C904C0013CC5
:10AA4000FBD101BC854670BCA046A946B246F0BC0D
:10AA50007047C046F0B444464D4630B488469946E7
:10AA60006C469B00E31A9D4610B46C46241D4B4671
:10AA70000832012720C940CA7F08B5417F4120C460
:10AA8000013BF7D16A46121D0125EF41FF17FD4337
:10AA9000414629403A4011434B4610C910C0013B82
:10AAA000FBD101BC854630BCA046A946F0BC70472E
:10AAB000F0B589B00446B74D22F028FF0190207808
:10AAC0000021042824D3089122F020FF0646278D78
:10AAD000B804850F28012838B04220DD801B07907C
:10AAE000B9068A0F0A2106914A432946AA4B98477C
:10AAF0000390B805820F0698424307982946A64B53
:10AB00009847A54B049003223A400798294625E030
:10AB10000E460B460691009104910F4645E0BD0B91
:10AB200029017D204840B0421BDA301A07903906CF
:10AB30008A0F0A2106914A432946974B984703906A
:10AB40003805820F0698424307982946924B98474A
:10AB500004903807820F079829468F4B984700903A
:10AB600003E000200490009003908A4DE26A1007F1
:10AB70000017193E7043C111A88CC00706910AD175
:10AB800010030017110209174643F0114318161756
:10AB90001001011708E010060017110509174643B8
:10ABA000F011431808990E46039F2278082A08914D
:10ABB00007930296059213D320462B30019D222D38
:10ABC00003970FDD00780207930F8209233D10469B
:10ABD00068434000103046095D4310356F0916E0A8
